{"abi":[{"type":"function","name":"addAP","inputs":[{"name":"newAP","type":"tuple","internalType":"struct AuthorizationProvider","components":[{"name":"id","type":"uint8","internalType":"uint8"},{"name":"owner","type":"address","internalType":"address"},{"name":"apName","type":"string","internalType":"string"},{"name":"apURI","type":"string","internalType":"string"}]}],"outputs":[],"stateMutability":"nonpayable"},{"type":"function","name":"addRegister","inputs":[{"name":"newRegister","type":"tuple","internalType":"struct Register","components":[{"name":"id","type":"uint8","internalType":"uint8"},{"name":"owner","type":"address","internalType":"address"},{"name":"registerName","type":"string","internalType":"string"},{"name":"registerURI","type":"string","internalType":"string"}]}],"outputs":[],"stateMutability":"nonpayable"},{"type":"function","name":"addSVS","inputs":[{"name":"newSVS","type":"tuple","internalType":"struct SignatureValidationServer","components":[{"name":"id","type":"uint8","internalType":"uint8"},{"name":"owner","type":"address","internalType":"address"},{"name":"svsName","type":"string","internalType":"string"},{"name":"svsURI","type":"string","internalType":"string"}]}],"outputs":[],"stateMutability":"nonpayable"},{"type":"function","name":"aps","inputs":[{"name":"","type":"uint8","internalType":"uint8"}],"outputs":[{"name":"id","type":"uint8","internalType":"uint8"},{"name":"owner","type":"address","internalType":"address"},{"name":"apName","type":"string","internalType":"string"},{"name":"apURI","type":"string","internalType":"string"}],"stateMutability":"view"},{"type":"function","name":"authorizeVoter","inputs":[{"name":"electionID","type":"uint256","internalType":"uint256"},{"name":"voterID","type":"uint256","internalType":"uint256"}],"outputs":[],"stateMutability":"nonpayable"},{"type":"function","name":"authorizeVoters","inputs":[{"name":"electionID","type":"uint256","internalType":"uint256"},{"name":"voterIDs","type":"uint256[]","internalType":"uint256[]"}],"outputs":[],"stateMutability":"nonpayable"},{"type":"function","name":"cancelElection","inputs":[{"name":"electionID","type":"uint256","internalType":"uint256"},{"name":"cancelReasonIPFSHash","type":"string","internalType":"string"}],"outputs":[],"stateMutability":"nonpayable"},{"type":"function","name":"createElection","inputs":[{"name":"startTime","type":"uint256","internalType":"uint256"},{"name":"endTime","type":"uint256","internalType":"uint256"},{"name":"registerID","type":"uint8","internalType":"uint8"},{"name":"authProviderId","type":"uint8","internalType":"uint8"},{"name":"svsId","type":"uint8","internalType":"uint8"},{"name":"ballotLength","type":"uint8","internalType":"uint8"},{"name":"descriptionIPFSHash","type":"string","internalType":"string"},{"name":"ballotIPFSHash","type":"string","internalType":"string"},{"name":"publicKey","type":"bytes","internalType":"bytes"}],"outputs":[{"name":"","type":"uint256","internalType":"uint256"}],"stateMutability":"nonpayable"},{"type":"function","name":"elections","inputs":[{"name":"","type":"uint256","internalType":"uint256"}],"outputs":[{"name":"electionID","type":"uint256","internalType":"uint256"},{"name":"startTime","type":"uint256","internalType":"uint256"},{"name":"endTime","type":"uint256","internalType":"uint256"},{"name":"totalVotes","type":"uint256","internalType":"uint256"},{"name":"totalAuthorized","type":"uint256","internalType":"uint256"},{"name":"totalRegistered","type":"uint256","internalType":"uint256"},{"name":"registerID","type":"uint8","internalType":"uint8"},{"name":"authProviderId","type":"uint8","internalType":"uint8"},{"name":"svsId","type":"uint8","internalType":"uint8"},{"name":"ballotLength","type":"uint8","internalType":"uint8"},{"name":"status","type":"uint8","internalType":"enum ElectionStatus"},{"name":"ballotIPFSHash","type":"string","internalType":"string"},{"name":"cancelReasonIPFSHash","type":"string","internalType":"string"},{"name":"descriptionIPFSHash","type":"string","internalType":"string"},{"name":"publicKey","type":"bytes","internalType":"bytes"},{"name":"privateKey","type":"bytes","internalType":"bytes"},{"name":"registerPubKey","type":"bytes","internalType":"bytes"}],"stateMutability":"view"},{"type":"function","name":"endElection","inputs":[{"name":"electionID","type":"uint256","internalType":"uint256"}],"outputs":[],"stateMutability":"nonpayable"},{"type":"function","name":"owner","inputs":[],"outputs":[{"name":"","type":"address","internalType":"address"}],"stateMutability":"view"},{"type":"function","name":"publishElectionResults","inputs":[{"name":"electionID","type":"uint256","internalType":"uint256"},{"name":"yesVotes","type":"uint256[]","internalType":"uint256[]"},{"name":"noVotes","type":"uint256[]","internalType":"uint256[]"},{"name":"invalidVotes","type":"uint256[]","internalType":"uint256[]"},{"name":"privateKey","type":"bytes","internalType":"bytes"}],"outputs":[],"stateMutability":"nonpayable"},{"type":"function","name":"registerVoter","inputs":[{"name":"electionID","type":"uint256","internalType":"uint256"},{"name":"voterID","type":"uint256","internalType":"uint256"},{"name":"blindedSignature","type":"bytes","internalType":"bytes"},{"name":"blindedElectionToken","type":"bytes","internalType":"bytes"}],"outputs":[],"stateMutability":"nonpayable"},{"type":"function","name":"registerVoters","inputs":[{"name":"electionID","type":"uint256","internalType":"uint256"},{"name":"voterIDs","type":"uint256[]","internalType":"uint256[]"},{"name":"blindedSignature","type":"bytes","internalType":"bytes"},{"name":"blindedElectionToken","type":"bytes","internalType":"bytes"}],"outputs":[],"stateMutability":"nonpayable"},{"type":"function","name":"registers","inputs":[{"name":"","type":"uint8","internalType":"uint8"}],"outputs":[{"name":"id","type":"uint8","internalType":"uint8"},{"name":"owner","type":"address","internalType":"address"},{"name":"registerName","type":"string","internalType":"string"},{"name":"registerURI","type":"string","internalType":"string"}],"stateMutability":"view"},{"type":"function","name":"renounceOwnership","inputs":[],"outputs":[],"stateMutability":"nonpayable"},{"type":"function","name":"setElectionRegisterKey","inputs":[{"name":"electionID","type":"uint256","internalType":"uint256"},{"name":"registerKey","type":"bytes","internalType":"bytes"}],"outputs":[],"stateMutability":"nonpayable"},{"type":"function","name":"startElection","inputs":[{"name":"electionID","type":"uint256","internalType":"uint256"}],"outputs":[],"stateMutability":"nonpayable"},{"type":"function","name":"svss","inputs":[{"name":"","type":"uint8","internalType":"uint8"}],"outputs":[{"name":"id","type":"uint8","internalType":"uint8"},{"name":"owner","type":"address","internalType":"address"},{"name":"svsName","type":"string","internalType":"string"},{"name":"svsURI","type":"string","internalType":"string"}],"stateMutability":"view"},{"type":"function","name":"transferOwnership","inputs":[{"name":"newOwner","type":"address","internalType":"address"}],"outputs":[],"stateMutability":"nonpayable"},{"type":"function","name":"vote","inputs":[{"name":"electionID","type":"uint256","internalType":"uint256"},{"name":"voter","type":"address","internalType":"address"},{"name":"svsSignature","type":"bytes","internalType":"bytes"},{"name":"vote_encrypted","type":"bytes","internalType":"bytes"},{"name":"unblindedElectionToken","type":"bytes","internalType":"bytes"},{"name":"unblindedSignature","type":"bytes","internalType":"bytes"}],"outputs":[],"stateMutability":"nonpayable"},{"type":"event","name":"ElectionCreated","inputs":[{"name":"electionID","type":"uint256","indexed":true,"internalType":"uint256"},{"name":"startTime","type":"uint256","indexed":false,"internalType":"uint256"},{"name":"endTime","type":"uint256","indexed":false,"internalType":"uint256"},{"name":"registerId","type":"uint8","indexed":false,"internalType":"uint8"},{"name":"authProviderId","type":"uint8","indexed":false,"internalType":"uint8"},{"name":"svsId","type":"uint8","indexed":false,"internalType":"uint8"},{"name":"ballotLength","type":"uint8","indexed":false,"internalType":"uint8"},{"name":"descriptionIPFSHash","type":"string","indexed":false,"internalType":"string"},{"name":"ballotIPFSHash","type":"string","indexed":false,"internalType":"string"}],"anonymous":false},{"type":"event","name":"ElectionRegisterKeySet","inputs":[{"name":"electionID","type":"uint256","indexed":true,"internalType":"uint256"},{"name":"registerKey","type":"bytes","indexed":false,"internalType":"bytes"}],"anonymous":false},{"type":"event","name":"ElectionResultsPublished","inputs":[{"name":"electionID","type":"uint256","indexed":true,"internalType":"uint256"},{"name":"privateKey","type":"bytes","indexed":false,"internalType":"bytes"},{"name":"yesVotes","type":"uint256[]","indexed":false,"internalType":"uint256[]"},{"name":"noVotes","type":"uint256[]","indexed":false,"internalType":"uint256[]"},{"name":"invalidVotes","type":"uint256[]","indexed":false,"internalType":"uint256[]"}],"anonymous":false},{"type":"event","name":"ElectionStatusChanged","inputs":[{"name":"electionID","type":"uint256","indexed":true,"internalType":"uint256"},{"name":"oldStatus","type":"uint8","indexed":false,"internalType":"enum ElectionStatus"},{"name":"newStatus","type":"uint8","indexed":false,"internalType":"enum ElectionStatus"},{"name":"cancelReasonIPFS","type":"string","indexed":false,"internalType":"string"}],"anonymous":false},{"type":"event","name":"OwnershipTransferred","inputs":[{"name":"previousOwner","type":"address","indexed":true,"internalType":"address"},{"name":"newOwner","type":"address","indexed":true,"internalType":"address"}],"anonymous":false},{"type":"event","name":"VoteCast","inputs":[{"name":"electionID","type":"uint256","indexed":true,"internalType":"uint256"},{"name":"voter","type":"address","indexed":true,"internalType":"address"},{"name":"svsSignature","type":"bytes","indexed":false,"internalType":"bytes"},{"name":"vote_encrypted","type":"bytes","indexed":false,"internalType":"bytes"},{"name":"unblindedElectionToken","type":"bytes","indexed":false,"internalType":"bytes"},{"name":"unblindedSignature","type":"bytes","indexed":false,"internalType":"bytes"}],"anonymous":false},{"type":"event","name":"VoteUpdated","inputs":[{"name":"electionID","type":"uint256","indexed":true,"internalType":"uint256"},{"name":"voter","type":"address","indexed":true,"internalType":"address"},{"name":"vote_encrypted","type":"bytes","indexed":false,"internalType":"bytes"}],"anonymous":false},{"type":"event","name":"VoterAuthorized","inputs":[{"name":"electionID","type":"uint256","indexed":true,"internalType":"uint256"},{"name":"voterID","type":"uint256","indexed":true,"internalType":"uint256"},{"name":"apID","type":"uint8","indexed":true,"internalType":"uint8"}],"anonymous":false},{"type":"event","name":"VoterRegistered","inputs":[{"name":"electionID","type":"uint256","indexed":true,"internalType":"uint256"},{"name":"voterID","type":"uint256","indexed":true,"internalType":"uint256"},{"name":"registerID","type":"uint8","indexed":true,"internalType":"uint8"},{"name":"blindedSignature","type":"bytes","indexed":false,"internalType":"bytes"},{"name":"blindedElectionToken","type":"bytes","indexed":false,"internalType":"bytes"}],"anonymous":false},{"type":"event","name":"VotersAuthorized","inputs":[{"name":"electionID","type":"uint256","indexed":true,"internalType":"uint256"},{"name":"voterIDs","type":"uint256[]","indexed":false,"internalType":"uint256[]"},{"name":"apID","type":"uint8","indexed":true,"internalType":"uint8"}],"anonymous":false},{"type":"event","name":"VotersRegistered","inputs":[{"name":"electionID","type":"uint256","indexed":true,"internalType":"uint256"},{"name":"voterIDs","type":"uint256[]","indexed":false,"internalType":"uint256[]"},{"name":"registerID","type":"uint8","indexed":true,"internalType":"uint8"},{"name":"blindedSignature","type":"bytes","indexed":false,"internalType":"bytes"},{"name":"blindedElectionToken","type":"bytes","indexed":false,"internalType":"bytes"}],"anonymous":false},{"type":"error","name":"ECDSAInvalidSignature","inputs":[]},{"type":"error","name":"ECDSAInvalidSignatureLength","inputs":[{"name":"length","type":"uint256","internalType":"uint256"}]},{"type":"error","name":"ECDSAInvalidSignatureS","inputs":[{"name":"s","type":"bytes32","internalType":"bytes32"}]},{"type":"error","name":"OwnableInvalidOwner","inputs":[{"name":"owner","type":"address","internalType":"address"}]},{"type":"error","name":"OwnableUnauthorizedAccount","inputs":[{"name":"account","type":"address","internalType":"address"}]}],"bytecode":{"object":"0x6080806040523461007a5733156100645760008054336001600160a01b03198216811783556040519290916001600160a01b0316907f8be0079c531659141344cd1fd0a4f28419497f9722a3daafe3b4186f6b6457e09080a36127a590816100808239f35b631e4fbdf760e01b815260006004820152602490fd5b600080fdfe6080604052600436101561001257600080fd5b60003560e01c80630ecc6fd61461177d578063256fab2f1461170057806332d8fde0146115d35780633ad71ded146115945780635e6fef011461142157806362dc5b37146113615780636d32dc4b1461124a578063715018a6146111f157806388c7c073146110e45780638b9f341b14610f6d5780638da5cb5b14610f445780639c98bcbb14610eb95780639d99593c14610c38578063a67e65c314610bf9578063ad6e96f114610b7c578063ae27a99c14610ae8578063ca3ebbca14610a5c578063e1c67af4146109f4578063ed08dc36146106d9578063f2fde38b146106495763ff6cc66e1461010357600080fd5b346106445760c0366003190112610644576024356001600160a01b0381169003610644576001600160401b0360443581811161064457610147903690600401612006565b919060643582811161064457610161903690600401612006565b9190936084358481116106445761017c903690600401612006565b95909460a43590811161064457610197903690600401612006565b9690956101a560043561218d565b5091861561061257600683015460ff8160201c1660058110156105fc576001036105be57600284015442116105885785156104f45760101c60ff1660009081526002602052604090205460081c6001600160a01b031680156104bb578915610476578115610431576024356001600160a01b0316600090815260078501602052604090205460ff166103fc576102e96102e086846102a060548f8f908f9181868d60405198868a97602089019c8d60043590526bffffffffffffffffffffffff1960243560601b1660408b01528a8a013787019188830160008152370191858301600081523701600083820152036034810184520182611ec0565b5190206102ae368a8c611ee1565b907f19457468657265756d205369676e6564204d6573736167653a0a333200000000600052601c52603c600020612614565b90929192612650565b6001600160a01b0316036103c9576003830193845490600182018092116103b3577fe14ef84552be78056208429105497c98038b42888a5514c26859cf725bf3081598600761039096610382946103ae995560018060a01b0360243516600052016020526040600020600160ff19825416179055610374604051998a9960808b5260808b0191612553565b9188830360208a0152612553565b918583036040870152612553565b82810360608401526024356001600160a01b03169660043596612553565b0390a3005b634e487b7160e01b600052601160045260246000fd5b60405162461bcd60e51b815260206004820152600b60248201526a14da59c81a5b9d985b1a5960aa1b6044820152606490fd5b60405162461bcd60e51b815260206004820152600d60248201526c105b1c9958591e481d9bdd1959609a1b6044820152606490fd5b60405162461bcd60e51b815260206004820152601c60248201527f756e626c696e646564456c656374696f6e546f6b656e20656d707479000000006044820152606490fd5b60405162461bcd60e51b815260206004820152601860248201527f756e626c696e6465645369676e617475726520656d70747900000000000000006044820152606490fd5b60405162461bcd60e51b815260206004820152601160248201527014d594c81b9bdd081cdc1958da599a5959607a1b6044820152606490fd5b50505092509450506007919250336000520160205260ff6040600020541615610553577f7c1b6e0bead11af4a2228a932e5f9347a734ce6a77fa9dd16340629dc6761e4960405160208152806103ae3395600435956020840191612553565b60405162461bcd60e51b815260206004820152600d60248201526c3b37ba32b9103ab735b737bbb760991b6044820152606490fd5b60405162461bcd60e51b815260206004820152600e60248201526d115b1958dd1a5bdb88195b99195960921b6044820152606490fd5b60405162461bcd60e51b8152602060048201526016602482015275456c656374696f6e206973206e6f742061637469766560501b6044820152606490fd5b634e487b7160e01b600052602160045260246000fd5b60405162461bcd60e51b815260206004820152600a602482015269766f746520656d70747960b01b6044820152606490fd5b600080fd5b34610644576020366003190112610644576004356001600160a01b0381811691829003610644576106786125e8565b81156106c057600054826bffffffffffffffffffffffff60a01b821617600055167f8be0079c531659141344cd1fd0a4f28419497f9722a3daafe3b4186f6b6457e0600080a3005b604051631e4fbdf760e01b815260006004820152602490fd5b346106445760a0366003190112610644576001600160401b036004356024358281116106445761070d903690600401611fd6565b9260443581811161064457610726903690600401611fd6565b6064358381116106445761073e903690600401611fd6565b93909660843582811161064457610759903690600401611f27565b956107626125e8565b61076b8861218d565b50600681019384549460209560ff81881c1660058110156105fc576002036109ba5760ff8160181c168614806109b1575b806109a8575b156109515764ff000000001916640300000000179055885190811161093b576107db816107d2600c850154612033565b600c85016121eb565b84601f821160011461089757946108799461088798947f7fcd094554b47e375d6a1b9177531c60274153841ea6bb7d55eda281b925af5f9c9d9894600c6108468661085e9f9e9b978f9861086b9960009261088c575b50508160011b916000199060031b1c19161790565b9101555b6040519b8c9b60808d5260808d0190612112565b928b8403908c015261252f565b91878303604089015261252f565b91848303606086015261252f565b0390a2005b015190508f80610831565b601f19821690600c8401600052866000209160005b8181106109245750947f7fcd094554b47e375d6a1b9177531c60274153841ea6bb7d55eda281b925af5f9c9d9894600c60018661085e9f9e9b968f966108879f9b9761086b9a6108799e991061090b575b505050811b0191015561084a565b015160001960f88460031b161c19169055388f806108fd565b919288600181928f870151815501940192016108ac565b634e487b7160e01b600052604160045260246000fd5b60405162461bcd60e51b815260048101889052602960248201527f526573756c747320617272617973206d7573742068617665207468652073616d60448201526832903632b733ba341760b91b6064820152608490fd5b508988146107a2565b5087861461079c565b60405162461bcd60e51b8152600481018890526012602482015271115b1958dd1a5bdb881b9bdd08195b99195960721b6044820152606490fd5b346106445760203660031901126106445760ff610a0f611eb0565b16600052600160205260406000208054610a58610a3a6002610a336001860161206d565b940161206d565b604051938493600881901c6001600160a01b03169060ff1685612152565b0390f35b34610644576020366003190112610644576004356001600160401b03811161064457610a8f610ae6913690600401611f45565b610a976125e8565b60ff8151166000526002602052610acf60018060a01b03610ac28160406000205460081c1615612241565b602083015116151561227f565b60ff815116600052600260205260406000206122c0565b005b346106445760403660031901126106445760043560ff6006610b098361218d565b50015460081c1690816000526003602052610b3560018060a01b0360406000205460081c163314612574565b6004610b408261218d565b5001805490600182018092116103b35755602435907ffdc9f15cdb5775fdc9cb8210e4bbe880f3087e8e7671807001291e20c87c1703600080a4005b34610644576020366003190112610644576004356001600160401b03811161064457610baf610ae6913690600401611f45565b610bb76125e8565b60ff8151166000526003602052610be260018060a01b03610ac28160406000205460081c1615612241565b60ff815116600052600360205260406000206122c0565b346106445760203660031901126106445760ff610c14611eb0565b16600052600360205260406000208054610a58610a3a6002610a336001860161206d565b34610644576040366003190112610644576001600160401b036004356024803583811161064457610c6d903690600401611f27565b9060ff6006610c7b8561218d565b500154166000526001906020916001835260018060a01b0360406000205460081c163303610e855760ff6006610cb08761218d565b500154841c166005811015610e7057158015610e4b575b15610e0757600d610cd78661218d565b5001918451968711610df35750610cf886610cf28454612033565b846121eb565b8290601f8711600114610d6c5750857f4ca5e125213f01404fecf3a464644ffedaa8913d1d43fe6a08db4bf56201d0bb9596610d4a92600091610d61575b508160011b916000199060031b1c19161790565b90555b610887604051928284938452830190612112565b905085015188610d36565b90601f1987168360005284600020926000905b828210610ddc5750509187917f4ca5e125213f01404fecf3a464644ffedaa8913d1d43fe6a08db4bf56201d0bb979860019410610dc3575b5050811b019055610d4d565b86015160001960f88460031b161c191690558780610db7565b878401518555938401939286019290860190610d7f565b634e487b7160e01b60009081526041600452fd5b60405162461bcd60e51b815260048101849052601e818401527f456c656374696f6e206e6f7420616374697665206f722070656e64696e6700006044820152606490fd5b5060ff6006610e598761218d565b500154841c166005811015610e7057600114610cc7565b82634e487b7160e01b60005260216004526000fd5b60405162461bcd60e51b815260048101849052600d818401526c27b7363c902932b3b4b9ba32b960991b6044820152606490fd5b3461064457602036600319011261064457600435610ed56125e8565b600080516020612750833981519152608060ff610f2c6006610ef68661218d565b50610f0760028201544210156125b0565b01805464ff000000001981166402000000001790915560405192839160201c166121de565b600260208201526060604082015260006060820152a2005b34610644576000366003190112610644576000546040516001600160a01b039091168152602090f35b34610644576040366003190112610644576004356001600160401b0360243581811161064457610fa1903690600401611f27565b610fa96125e8565b610fb28361218d565b5060068101805464ff0000000019811664040000000017909155825190936020926009019190811161093b57610fec81610cf28454612033565b82601f8211600114611067576000805160206127508339815191529593610887936110338460ff989560049560009161105c57508160011b916000199060031b1c19161790565b90555b61104860405180978197841c166121de565b840152606060408401526060830190612112565b90508601518c610d36565b601f1982169083600052846000209160005b8181106110cd5750936001846004946000805160206127508339815191529a989460ff9a9761088799106110b4575b5050811b019055611036565b87015160001960f88460031b161c191690558b806110a8565b91928660018192868b015181550194019201611079565b34610644576080366003190112610644576004356001600160401b0360443581811161064457611118903690600401612006565b92909160643590811161064457611133903690600401612006565b909260ff60066111428561218d565b500154169485600052600160205261116b60018060a01b0360406000205460081c163314612494565b6111768115156124d6565b6111818315156124d6565b600561118c8561218d565b5001805493600185018095116103b3577f2c5dc525450bc5b952dc01497602a143979bc76ab18f35f7f88265155fe5364d946111ec92556111da604051948594604086526040860191612553565b90838203602085015260243597612553565b0390a4005b346106445760003660031901126106445761120a6125e8565b600080546001600160a01b0319811682556001600160a01b03167f8be0079c531659141344cd1fd0a4f28419497f9722a3daafe3b4186f6b6457e08280a3005b34610644576020366003190112610644576004356112666125e8565b61126f8161218d565b5061128060018201544210156125b0565b426002820154111561133157611299600d820154612033565b156112f457608060ff6112dc6006600080516020612750833981519152940180549064010000000064ff0000000019831617905560405192839160201c166121de565b600160208201526060604082015260006060820152a2005b60405162461bcd60e51b8152602060048201526015602482015274149959da5cdd195c8812d95e481c995c5d5a5c9959605a1b6044820152606490fd5b60405162461bcd60e51b8152602060048201526008602482015267746f6f206c61746560c01b6044820152606490fd5b34610644576040366003190112610644576024356004356001600160401b038211610644576113b57f75fccf1e7f4d6ed8c2f55bfcfd5593f7e4ee4323d013c99b055ca000cc454e1c923690600401611fd6565b929060ff60066113c48561218d565b50015460081c16938460005260036020526113f060018060a01b0360406000205460081c163314612574565b60046113fb8561218d565b5001611408828254612522565b90556103ae60405192839260208452602084019161252f565b3461064457602036600319011261064457600435600454811015610644576114489061218d565b5080546001820154906002830154926003810154916004820154906005830154906006840154906008850161147c9061206d565b906114896009870161206d565b92611496600a880161206d565b946114a3600b890161206d565b966114b0600c8a0161206d565b98600d016114bd9061206d565b996040519c8d9c8d6102209781526020015260408d015260608c015260808b015260a08a015260ff811660c08a01528060081c60ff1660e08a01528060101c60ff166101008a01528060181c60ff166101208a015261014089019060201c60ff1690611528916121de565b80610160890152870161153a91612112565b86810361018088015261154c91612112565b8581036101a087015261155e91612112565b8481036101c086015261157091612112565b8381036101e085015261158291612112565b828103610200840152610a5891612112565b346106445760203660031901126106445760ff6115af611eb0565b16600052600260205260406000208054610a58610a3a6002610a336001860161206d565b34610644576080366003190112610644576001600160401b0360043560243582811161064457611607903690600401611fd6565b929060443582811161064457611621903690600401612006565b949092606435908111610644577ff6da39384f715811f0feea8a8e1fffa76fa54b4716ce679ba96b616d4acbddef936116f26116646103ae933690600401612006565b91909260ff60066116748b61218d565b50015416998a600052600160205261169d60018060a01b0360406000205460081c163314612494565b6116a88115156124d6565b6116b38415156124d6565b60056116be8b61218d565b50016116cb888254612522565b90556116e460405198899860608a5260608a019161252f565b918783036020890152612553565b918483036040860152612553565b34610644576020366003190112610644576004356001600160401b03811161064457611733610ae6913690600401611f45565b61173b6125e8565b60ff815116600052600160205261176660018060a01b03610ac28160406000205460081c1615612241565b60ff815116600052600160205260406000206122c0565b34610644576101203660031901126106445760443560ff811681036106445760ff60643516606435036106445760ff60843516608435036106445760ff60a4351660a435036106445760c4356001600160401b038111610644576117e5903690600401611f27565b60e4356001600160401b03811161064457611804903690600401611f27565b91610104356001600160401b03811161064457611825903690600401611f27565b61182d6125e8565b6024356004351015611e5f57426004351115611e255760ff821660009081526001602052604090205460081c6001600160a01b031615611deb5760643560ff1660009081526003602052604090205460081c6001600160a01b031615611dad5760843560ff1660009081526002602052604090205460081c6001600160a01b031615611d7857825115611d3357835115611cf857805115611cb357600454926801000000000000000084101561093b5760018401806004556118ee8561218d565b505084116103b3576118ff8461218d565b509264ff0000000019600685015416600685015584845581516001600160401b03811161093b5761194081611937600a880154612033565b600a88016121eb565b6020601f8211600114611c4757908061196e92600091611c3c57508160011b916000199060031b1c19161790565b600a8501555b6004356001850155602435600285015560068401805462ffffff191660ff83161760643560081b61ff00161760843560101b62ff00001617905585516001600160401b03811161093b576119d8816119cf6008880154612033565b600888016121eb565b6020601f8211600114611bd0579080611a0692600091611bc557508160011b916000199060031b1c19161790565b60088501555b8251956001600160401b03871161093b57868694611a3c602099611a33600b8a0154612033565b600b8a016121eb565b8890601f8311600114611b2b5782611b1594937f16440a13c7774504db55adcae5b5d40a77dd6a318b93f56aa4395cddbcaa2579989993611a9393600092611b205750508160011b916000199060031b1c19161790565b600b8201555b60068082015463ff00000060a43560181b169063ff000000191617910155611b0760405194859460ff6101009160043588526024358d89015216604087015260ff60643516606087015260ff60843516608087015260ff60a4351660a08701528060c0870152850190612112565b9083820360e0850152612112565b0390a2604051908152f35b015190508c80610831565b600b8893929801600052896000209060005b601f1984168110611bab5750916001917f16440a13c7774504db55adcae5b5d40a77dd6a318b93f56aa4395cddbcaa25799899611b1596959483601f19811610611b92575b505050811b01600b820155611a99565b015160001960f88460031b161c191690558b8080611b82565b818a01518355988b01988a98506001909201918b01611b3d565b905088015189610d36565b906008860160005260206000206000925b601f1983168410611c24576001935082601f19811610611c0b575b5050811b016008850155611a0c565b89015160001960f88460031b161c191690558880611bfc565b89810151825560209384019360019092019101611be1565b905084015189610d36565b90600a860160005260206000206000925b601f1983168410611c9b576001935082601f19811610611c82575b5050811b01600a850155611974565b85015160001960f88460031b161c191690558880611c73565b85810151825560209384019360019092019101611c58565b60405162461bcd60e51b815260206004820152601760248201527f496e76616c696420656c656374696f6e205075624b65790000000000000000006044820152606490fd5b60405162461bcd60e51b8152602060048201526013602482015272092dcecc2d8d2c840c4c2d8d8dee840d0c2e6d606b1b6044820152606490fd5b60405162461bcd60e51b815260206004820152601860248201527f496e76616c6964206465736372697074696f6e206861736800000000000000006044820152606490fd5b60405162461bcd60e51b815260206004820152600d60248201526c125b9d985b1a59081cdd9cd259609a1b6044820152606490fd5b60405162461bcd60e51b8152602060048201526016602482015275125b9d985b1a5908185d5d1a141c9bdd9a59195c925960521b6044820152606490fd5b60405162461bcd60e51b8152602060048201526012602482015271125b9d985b1a59081c9959da5cdd195c925160721b6044820152606490fd5b60405162461bcd60e51b815260206004820152601260248201527114dd185c9d081d1a5b59481a5b881c185cdd60721b6044820152606490fd5b60405162461bcd60e51b815260206004820152602360248201527f53746172742074696d65206d757374206265206265666f726520656e6420746960448201526236b29760e91b6064820152608490fd5b6004359060ff8216820361064457565b90601f801991011681019081106001600160401b0382111761093b57604052565b9291926001600160401b03821161093b5760405191611f0a601f8201601f191660200184611ec0565b829481845281830111610644578281602093846000960137010152565b9080601f8301121561064457816020611f4293359101611ee1565b90565b91909160808184031261064457604051906001600160401b0390608083018281118482101761093b576040528294813560ff8116810361064457845260208201356001600160a01b038116810361064457602085015260408201358381116106445781611fb3918401611f27565b6040850152606082013592831161064457606092611fd19201611f27565b910152565b9181601f84011215610644578235916001600160401b038311610644576020808501948460051b01011161064457565b9181601f84011215610644578235916001600160401b038311610644576020838186019501011161064457565b90600182811c92168015612063575b602083101461204d57565b634e487b7160e01b600052602260045260246000fd5b91607f1691612042565b9060405191826000825461208081612033565b908184526020946001916001811690816000146120f057506001146120b1575b5050506120af92500383611ec0565b565b600090815285812095935091905b8183106120d85750506120af93508201013880806120a0565b855488840185015294850194879450918301916120bf565b925050506120af94925060ff191682840152151560051b8201013880806120a0565b919082519283825260005b84811061213e575050826000602080949584010152601f8019910116010190565b60208183018101518483018201520161211d565b92611f42949260ff61217f9316855260018060a01b03166020850152608060408501526080840190612112565b916060818403910152612112565b6004548110156121c857600e906004600052027f8a35acfbc15ff81a39ae7d344fd709f28e8600b4aa8c65c6b64bfe7fe36bd19b0190600090565b634e487b7160e01b600052603260045260246000fd5b9060058210156105fc5752565b90601f81116121f957505050565b6000916000526020600020906020601f850160051c83019410612237575b601f0160051c01915b82811061222c57505050565b818155600101612220565b9092508290612217565b1561224857565b60405162461bcd60e51b815260206004820152600f60248201526e125108185b1c9958591e481d5cd959608a1b6044820152606490fd5b1561228657565b60405162461bcd60e51b8152602060048201526012602482015271139bc81bdddb995c881cdc1958da599a595960721b6044820152606490fd5b815181546020808501516001600160a81b031990921660ff939093169290921760089190911b610100600160a81b0316178255604083015180516001936001600160401b03939290918583019185821161093b57612328826123228554612033565b856121eb565b8490601f83116001146124265782606095936002959361235e936000926123b75750508160011b916000199060031b1c19161790565b90555b0194015192835192831161093b576123838361237d8754612033565b876121eb565b81601f84116001146123c257505081906123b3936000926123b75750508160011b916000199060031b1c19161790565b9055565b015190503880610831565b91909383601f1981168760005284600020946000905b8883831061240c57505050106123f3575b505050811b019055565b015160001960f88460031b161c191690553880806123e9565b8587015188559096019594850194879350908101906123d8565b879291601f1983169185600052876000209260005b8982821061247e5750509160609795939185600298969410612465575b505050811b019055612361565b015160001960f88460031b161c19169055388080612458565b8385015186558c9790950194938401930161243b565b1561249b57565b60405162461bcd60e51b815260206004820152601360248201527227b7363c902932b3b4b9ba32b91027bbb732b960691b6044820152606490fd5b156124dd57565b60405162461bcd60e51b815260206004820152601a60248201527f426c696e646564205369676e61747572652072657175697265640000000000006044820152606490fd5b919082018092116103b357565b81835290916001600160fb1b0383116106445760209260051b809284830137010190565b908060209392818452848401376000828201840152601f01601f1916010190565b1561257b57565b60405162461bcd60e51b815260206004820152600d60248201526c27b7363c9020a81027bbb732b960991b6044820152606490fd5b156125b757565b60405162461bcd60e51b8152602060048201526009602482015268746f6f206561726c7960b81b6044820152606490fd5b6000546001600160a01b031633036125fc57565b60405163118cdaa760e01b8152336004820152602490fd5b81519190604183036126455761263e92506020820151906060604084015193015160001a906126bf565b9192909190565b505060009160029190565b60048110156105fc5780612662575050565b6001810361267c5760405163f645eedf60e01b8152600490fd5b6002810361269d5760405163fce698f760e01b815260048101839052602490fd5b6003146126a75750565b602490604051906335e2f38360e21b82526004820152fd5b91907f7fffffffffffffffffffffffffffffff5d576e7357a4501ddfe92f46681b20a0841161274357926020929160ff608095604051948552168484015260408301526060820152600092839182805260015afa156127375780516001600160a01b0381161561272e57918190565b50809160019190565b604051903d90823e3d90fd5b5050506000916003919056fe18cd2f0ef46835b9e18f0fa9e8c7a21238ff9d115ce30fedf75a472b7af70424a264697066735822122066b9059a438d9916d2b4332c7316330360c4879210fe19f5faa8898c8a7ee77464736f6c63430008180033","linkReferences":{}},"methodIdentifiers":{"addAP((uint8,address,string,string))":"ad6e96f1","addRegister((uint8,address,string,string))":"256fab2f","addSVS((uint8,address,string,string))":"ca3ebbca","aps(uint8)":"a67e65c3","authorizeVoter(uint256,uint256)":"ae27a99c","authorizeVoters(uint256,uint256[])":"62dc5b37","cancelElection(uint256,string)":"8b9f341b","createElection(uint256,uint256,uint8,uint8,uint8,uint8,string,string,bytes)":"0ecc6fd6","elections(uint256)":"5e6fef01","endElection(uint256)":"9c98bcbb","owner()":"8da5cb5b","publishElectionResults(uint256,uint256[],uint256[],uint256[],bytes)":"ed08dc36","registerVoter(uint256,uint256,bytes,bytes)":"88c7c073","registerVoters(uint256,uint256[],bytes,bytes)":"32d8fde0","registers(uint8)":"e1c67af4","renounceOwnership()":"715018a6","setElectionRegisterKey(uint256,bytes)":"9d99593c","startElection(uint256)":"6d32dc4b","svss(uint8)":"3ad71ded","transferOwnership(address)":"f2fde38b","vote(uint256,address,bytes,bytes,bytes,bytes)":"ff6cc66e"},"id":34}